{
  "contractName": "MarketContract",
  "abi": [
    {
      "constant": true,
      "inputs": [],
      "name": "creator",
      "outputs": [
        {
          "name": "",
          "type": "address"
        }
      ],
      "payable": false,
      "stateMutability": "view",
      "type": "function"
    },
    {
      "constant": true,
      "inputs": [],
      "name": "lastPrice",
      "outputs": [
        {
          "name": "",
          "type": "uint256"
        }
      ],
      "payable": false,
      "stateMutability": "view",
      "type": "function"
    },
    {
      "constant": true,
      "inputs": [],
      "name": "lastPriceQueryResult",
      "outputs": [
        {
          "name": "",
          "type": "string"
        }
      ],
      "payable": false,
      "stateMutability": "view",
      "type": "function"
    },
    {
      "constant": true,
      "inputs": [],
      "name": "BASE_TOKEN",
      "outputs": [
        {
          "name": "",
          "type": "address"
        }
      ],
      "payable": false,
      "stateMutability": "view",
      "type": "function"
    },
    {
      "constant": false,
      "inputs": [
        {
          "name": "myid",
          "type": "bytes32"
        },
        {
          "name": "result",
          "type": "string"
        }
      ],
      "name": "__callback",
      "outputs": [],
      "payable": false,
      "stateMutability": "nonpayable",
      "type": "function"
    },
    {
      "constant": true,
      "inputs": [],
      "name": "PRICE_DECIMAL_PLACES",
      "outputs": [
        {
          "name": "",
          "type": "uint256"
        }
      ],
      "payable": false,
      "stateMutability": "view",
      "type": "function"
    },
    {
      "constant": false,
      "inputs": [
        {
          "name": "withdrawAmount",
          "type": "uint256"
        }
      ],
      "name": "withdrawTokens",
      "outputs": [],
      "payable": false,
      "stateMutability": "nonpayable",
      "type": "function"
    },
    {
      "constant": true,
      "inputs": [],
      "name": "isSettled",
      "outputs": [
        {
          "name": "",
          "type": "bool"
        }
      ],
      "payable": false,
      "stateMutability": "view",
      "type": "function"
    },
    {
      "constant": true,
      "inputs": [],
      "name": "SELL_SIDE",
      "outputs": [
        {
          "name": "",
          "type": "uint8"
        }
      ],
      "payable": false,
      "stateMutability": "view",
      "type": "function"
    },
    {
      "constant": false,
      "inputs": [
        {
          "name": "queryID",
          "type": "bytes32"
        },
        {
          "name": "result",
          "type": "string"
        },
        {
          "name": "proof",
          "type": "bytes"
        }
      ],
      "name": "__callback",
      "outputs": [],
      "payable": false,
      "stateMutability": "nonpayable",
      "type": "function"
    },
    {
      "constant": false,
      "inputs": [],
      "name": "settleAndClose",
      "outputs": [],
      "payable": false,
      "stateMutability": "nonpayable",
      "type": "function"
    },
    {
      "constant": true,
      "inputs": [
        {
          "name": "userAddress",
          "type": "address"
        }
      ],
      "name": "getUserAccountBalance",
      "outputs": [
        {
          "name": "",
          "type": "uint256"
        }
      ],
      "payable": false,
      "stateMutability": "view",
      "type": "function"
    },
    {
      "constant": true,
      "inputs": [],
      "name": "QUERY_CALLBACK_GAS",
      "outputs": [
        {
          "name": "",
          "type": "uint256"
        }
      ],
      "payable": false,
      "stateMutability": "view",
      "type": "function"
    },
    {
      "constant": true,
      "inputs": [],
      "name": "BUY_SIDE",
      "outputs": [
        {
          "name": "",
          "type": "uint8"
        }
      ],
      "payable": false,
      "stateMutability": "view",
      "type": "function"
    },
    {
      "constant": true,
      "inputs": [
        {
          "name": "orderHash",
          "type": "bytes32"
        }
      ],
      "name": "getQtyFilledOrCancelledFromOrder",
      "outputs": [
        {
          "name": "",
          "type": "int256"
        }
      ],
      "payable": false,
      "stateMutability": "view",
      "type": "function"
    },
    {
      "constant": true,
      "inputs": [],
      "name": "ORACLE_DATA_SOURCE",
      "outputs": [
        {
          "name": "",
          "type": "string"
        }
      ],
      "payable": false,
      "stateMutability": "view",
      "type": "function"
    },
    {
      "constant": true,
      "inputs": [
        {
          "name": "userAddress",
          "type": "address"
        }
      ],
      "name": "getUserPosition",
      "outputs": [
        {
          "name": "",
          "type": "int256"
        }
      ],
      "payable": false,
      "stateMutability": "view",
      "type": "function"
    },
    {
      "constant": true,
      "inputs": [],
      "name": "ORACLE_QUERY",
      "outputs": [
        {
          "name": "",
          "type": "string"
        }
      ],
      "payable": false,
      "stateMutability": "view",
      "type": "function"
    },
    {
      "constant": true,
      "inputs": [],
      "name": "CONTRACT_NAME",
      "outputs": [
        {
          "name": "",
          "type": "string"
        }
      ],
      "payable": false,
      "stateMutability": "view",
      "type": "function"
    },
    {
      "constant": true,
      "inputs": [],
      "name": "BASE_TOKEN_ADDRESS",
      "outputs": [
        {
          "name": "",
          "type": "address"
        }
      ],
      "payable": false,
      "stateMutability": "view",
      "type": "function"
    },
    {
      "constant": true,
      "inputs": [],
      "name": "collateralPoolBalance",
      "outputs": [
        {
          "name": "",
          "type": "uint256"
        }
      ],
      "payable": false,
      "stateMutability": "view",
      "type": "function"
    },
    {
      "constant": false,
      "inputs": [
        {
          "name": "orderAddresses",
          "type": "address[3]"
        },
        {
          "name": "unsignedOrderValues",
          "type": "uint256[5]"
        },
        {
          "name": "orderQty",
          "type": "int256"
        },
        {
          "name": "qtyToFill",
          "type": "int256"
        },
        {
          "name": "v",
          "type": "uint8"
        },
        {
          "name": "r",
          "type": "bytes32"
        },
        {
          "name": "s",
          "type": "bytes32"
        }
      ],
      "name": "tradeOrder",
      "outputs": [
        {
          "name": "filledQty",
          "type": "int256"
        }
      ],
      "payable": false,
      "stateMutability": "nonpayable",
      "type": "function"
    },
    {
      "constant": false,
      "inputs": [
        {
          "name": "depositAmount",
          "type": "uint256"
        }
      ],
      "name": "depositTokensForTrading",
      "outputs": [],
      "payable": false,
      "stateMutability": "nonpayable",
      "type": "function"
    },
    {
      "constant": true,
      "inputs": [],
      "name": "COST_PER_QUERY",
      "outputs": [
        {
          "name": "",
          "type": "uint256"
        }
      ],
      "payable": false,
      "stateMutability": "view",
      "type": "function"
    },
    {
      "constant": true,
      "inputs": [],
      "name": "PRICE_CAP",
      "outputs": [
        {
          "name": "",
          "type": "uint256"
        }
      ],
      "payable": false,
      "stateMutability": "view",
      "type": "function"
    },
    {
      "constant": true,
      "inputs": [],
      "name": "EXPIRATION",
      "outputs": [
        {
          "name": "",
          "type": "uint256"
        }
      ],
      "payable": false,
      "stateMutability": "view",
      "type": "function"
    },
    {
      "constant": true,
      "inputs": [],
      "name": "PRICE_FLOOR",
      "outputs": [
        {
          "name": "",
          "type": "uint256"
        }
      ],
      "payable": false,
      "stateMutability": "view",
      "type": "function"
    },
    {
      "constant": true,
      "inputs": [],
      "name": "ORACLE_QUERY_REPEAT",
      "outputs": [
        {
          "name": "",
          "type": "uint256"
        }
      ],
      "payable": false,
      "stateMutability": "view",
      "type": "function"
    },
    {
      "constant": true,
      "inputs": [],
      "name": "QTY_DECIMAL_PLACES",
      "outputs": [
        {
          "name": "",
          "type": "uint256"
        }
      ],
      "payable": false,
      "stateMutability": "view",
      "type": "function"
    },
    {
      "constant": true,
      "inputs": [],
      "name": "settlementPrice",
      "outputs": [
        {
          "name": "",
          "type": "uint256"
        }
      ],
      "payable": false,
      "stateMutability": "view",
      "type": "function"
    },
    {
      "constant": false,
      "inputs": [
        {
          "name": "newCreator",
          "type": "address"
        }
      ],
      "name": "transferCreator",
      "outputs": [],
      "payable": false,
      "stateMutability": "nonpayable",
      "type": "function"
    },
    {
      "constant": false,
      "inputs": [
        {
          "name": "orderAddresses",
          "type": "address[3]"
        },
        {
          "name": "unsignedOrderValues",
          "type": "uint256[5]"
        },
        {
          "name": "orderQty",
          "type": "int256"
        },
        {
          "name": "qtyToCancel",
          "type": "int256"
        }
      ],
      "name": "cancelOrder",
      "outputs": [
        {
          "name": "qtyCancelled",
          "type": "int256"
        }
      ],
      "payable": false,
      "stateMutability": "nonpayable",
      "type": "function"
    },
    {
      "inputs": [
        {
          "name": "contractName",
          "type": "string"
        },
        {
          "name": "baseTokenAddress",
          "type": "address"
        },
        {
          "name": "oracleDataSource",
          "type": "string"
        },
        {
          "name": "oracleQuery",
          "type": "string"
        },
        {
          "name": "oracleQueryRepeatSeconds",
          "type": "uint256"
        },
        {
          "name": "floorPrice",
          "type": "uint256"
        },
        {
          "name": "capPrice",
          "type": "uint256"
        },
        {
          "name": "priceDecimalPlaces",
          "type": "uint256"
        },
        {
          "name": "qtyDecimalPlaces",
          "type": "uint256"
        },
        {
          "name": "secondsToExpiration",
          "type": "uint256"
        }
      ],
      "payable": true,
      "stateMutability": "payable",
      "type": "constructor"
    },
    {
      "anonymous": false,
      "inputs": [],
      "name": "OracleQuerySuccess",
      "type": "event"
    },
    {
      "anonymous": false,
      "inputs": [],
      "name": "OracleQueryFailed",
      "type": "event"
    },
    {
      "anonymous": false,
      "inputs": [
        {
          "indexed": false,
          "name": "price",
          "type": "string"
        }
      ],
      "name": "UpdatedLastPrice",
      "type": "event"
    },
    {
      "anonymous": false,
      "inputs": [
        {
          "indexed": false,
          "name": "settlePrice",
          "type": "uint256"
        }
      ],
      "name": "ContractSettled",
      "type": "event"
    },
    {
      "anonymous": false,
      "inputs": [
        {
          "indexed": true,
          "name": "user",
          "type": "address"
        },
        {
          "indexed": false,
          "name": "balance",
          "type": "uint256"
        }
      ],
      "name": "UpdatedUserBalance",
      "type": "event"
    },
    {
      "anonymous": false,
      "inputs": [
        {
          "indexed": false,
          "name": "balance",
          "type": "uint256"
        }
      ],
      "name": "UpdatedPoolBalance",
      "type": "event"
    },
    {
      "anonymous": false,
      "inputs": [
        {
          "indexed": true,
          "name": "errorCode",
          "type": "uint8"
        },
        {
          "indexed": true,
          "name": "orderHash",
          "type": "bytes32"
        }
      ],
      "name": "Error",
      "type": "event"
    },
    {
      "anonymous": false,
      "inputs": [
        {
          "indexed": true,
          "name": "maker",
          "type": "address"
        },
        {
          "indexed": true,
          "name": "taker",
          "type": "address"
        },
        {
          "indexed": true,
          "name": "feeRecipient",
          "type": "address"
        },
        {
          "indexed": false,
          "name": "filledQty",
          "type": "int256"
        },
        {
          "indexed": false,
          "name": "paidMakerFee",
          "type": "uint256"
        },
        {
          "indexed": false,
          "name": "paidTakerFee",
          "type": "uint256"
        },
        {
          "indexed": false,
          "name": "orderHash",
          "type": "bytes32"
        }
      ],
      "name": "OrderFilled",
      "type": "event"
    },
    {
      "anonymous": false,
      "inputs": [
        {
          "indexed": true,
          "name": "maker",
          "type": "address"
        },
        {
          "indexed": true,
          "name": "feeRecipient",
          "type": "address"
        },
        {
          "indexed": false,
          "name": "cancelledQty",
          "type": "int256"
        },
        {
          "indexed": true,
          "name": "orderHash",
          "type": "bytes32"
        }
      ],
      "name": "OrderCancelled",
      "type": "event"
    },
    {
      "anonymous": false,
      "inputs": [
        {
          "indexed": true,
          "name": "currentCreator",
          "type": "address"
        },
        {
          "indexed": true,
          "name": "newCreator",
          "type": "address"
        }
      ],
      "name": "CreatorTransferred",
      "type": "event"
    }
  ],
  "bytecode": "0x60606040526000601a55604051620060fd380380620060fd83398101604052808051820191906020018051906020019091908051820191906020018051820191906020018051906020019091908051906020019091908051906020019091908051906020019091908051906020019091908051906020019091905050336000806101000a81548173ffffffffffffffffffffffffffffffffffffffff021916908373ffffffffffffffffffffffffffffffffffffffff1602179055508484111515620000ca57600080fd5b6200013160017f01000000000000000000000000000000000000000000000000000000000000000260107f010000000000000000000000000000000000000000000000000000000000000002176200028364010000000002620043df176401000000009004565b89600690805190602001906200014992919062001896565b5088600760006101000a81548173ffffffffffffffffffffffffffffffffffffffff021916908373ffffffffffffffffffffffffffffffffffffffff16021790555088600860006101000a81548173ffffffffffffffffffffffffffffffffffffffff021916908373ffffffffffffffffffffffffffffffffffffffff1602179055508360098190555084600a81905550804201600d8190555087600e9080519060200190620001fb92919062001896565b5086600f90805190602001906200021492919062001896565b508560108190555082600b8190555081600c8190555062000249816200060e6401000000000262004735176401000000009004565b15156200025557600080fd5b62000273620006566401000000000262002519176401000000009004565b5050505050505050505062001945565b6000600160009054906101000a900473ffffffffffffffffffffffffffffffffffffffff1673ffffffffffffffffffffffffffffffffffffffff1614806200030b5750600062000309600160009054906101000a900473ffffffffffffffffffffffffffffffffffffffff166200097d6401000000000262002d1f176401000000009004565b145b156200033357620003316000620009886401000000000262002d2a176401000000009004565b505b600160009054906101000a900473ffffffffffffffffffffffffffffffffffffffff1673ffffffffffffffffffffffffffffffffffffffff166338cc48316000604051602001526040518163ffffffff167c0100000000000000000000000000000000000000000000000000000000028152600401602060405180830381600087803b1515620003c257600080fd5b6102c65a03f11515620003d457600080fd5b5050506040518051905073ffffffffffffffffffffffffffffffffffffffff16600260009054906101000a900473ffffffffffffffffffffffffffffffffffffffff1673ffffffffffffffffffffffffffffffffffffffff161415156200052157600160009054906101000a900473ffffffffffffffffffffffffffffffffffffffff1673ffffffffffffffffffffffffffffffffffffffff166338cc48316000604051602001526040518163ffffffff167c0100000000000000000000000000000000000000000000000000000000028152600401602060405180830381600087803b1515620004c457600080fd5b6102c65a03f11515620004d657600080fd5b50505060405180519050600260006101000a81548173ffffffffffffffffffffffffffffffffffffffff021916908373ffffffffffffffffffffffffffffffffffffffff1602179055505b600260009054906101000a900473ffffffffffffffffffffffffffffffffffffffff1673ffffffffffffffffffffffffffffffffffffffff1663688dcfd7826040518263ffffffff167c010000000000000000000000000000000000000000000000000000000002815260040180827effffffffffffffffffffffffffffffffffffffffffffffffffffffffffffff19167effffffffffffffffffffffffffffffffffffffffffffffffffffffffffffff19168152602001915050600060405180830381600087803b1515620005f657600080fd5b6102c65a03f115156200060857600080fd5b50505050565b6000806000601054848115156200062157fe5b0491508166071afd498d0000029050600281023073ffffffffffffffffffffffffffffffffffffffff16311192505050919050565b60003073ffffffffffffffffffffffffffffffffffffffff16316200072d600e8054600181600116156101000203166002900480601f0160208091040260200160405190810160405280929190818152602001828054600181600116156101000203166002900480156200070e5780601f10620006e2576101008083540402835291602001916200070e565b820191906000526020600020905b815481529060010190602001808311620006f057829003601f168201915b505050505062000f206401000000000262003203176401000000009004565b1115620007b4577fe750bf6f639779f7bfd02493951a574664a66545051924fed175830841c530b260405160405180910390a16040805190810160405280600681526020017f4641494c4544000000000000000000000000000000000000000000000000000081525060119080519060200190620007ad92919062001896565b506200097a565b7fa3265d26377908f39dfc3e19ef2e4e49d48e740bcfa5f52711d6a40f0118c5d860405160405180910390a162000943601054600e8054600181600116156101000203166002900480601f016020809104026020016040519081016040528092919081815260200182805460018160011615610100020316600290048015620008815780601f10620008555761010080835404028352916020019162000881565b820191906000526020600020905b8154815290600101906020018083116200086357829003601f168201915b5050505050600f8054600181600116156101000203166002900480601f016020809104026020016040519081016040528092919081815260200182805460018160011615610100020316600290048015620009205780601f10620008f45761010080835404028352916020019162000920565b820191906000526020600020905b8154815290600101906020018083116200090257829003601f168201915b5050505050620493e0620012e4640100000000026200358f176401000000009004565b9050600160156000836000191660001916815260200190815260200160002060006101000a81548160ff0219169083151502179055505b50565b6000813b9050919050565b600080620009be731d3b2638a7cc9f2cb3d298a3da7a90b67e5506ed6200097d6401000000000262002d1f176401000000009004565b111562000a7857731d3b2638a7cc9f2cb3d298a3da7a90b67e5506ed600160006101000a81548173ffffffffffffffffffffffffffffffffffffffff021916908373ffffffffffffffffffffffffffffffffffffffff16021790555062000a6e6040805190810160405280600b81526020017f6574685f6d61696e6e65740000000000000000000000000000000000000000008152506200187a6401000000000262003fd9176401000000009004565b6001905062000f1b565b600062000aad73c03a2615d5efaf5f49f60b7bb6583eaec212fdf16200097d6401000000000262002d1f176401000000009004565b111562000b675773c03a2615d5efaf5f49f60b7bb6583eaec212fdf1600160006101000a81548173ffffffffffffffffffffffffffffffffffffffff021916908373ffffffffffffffffffffffffffffffffffffffff16021790555062000b5d6040805190810160405280600c81526020017f6574685f726f707374656e3300000000000000000000000000000000000000008152506200187a6401000000000262003fd9176401000000009004565b6001905062000f1b565b600062000b9c73b7a07bcf2ba2f2703b24c0691b5278999c59ac7e6200097d6401000000000262002d1f176401000000009004565b111562000c565773b7a07bcf2ba2f2703b24c0691b5278999c59ac7e600160006101000a81548173ffffffffffffffffffffffffffffffffffffffff021916908373ffffffffffffffffffffffffffffffffffffffff16021790555062000c4c6040805190810160405280600981526020017f6574685f6b6f76616e00000000000000000000000000000000000000000000008152506200187a6401000000000262003fd9176401000000009004565b6001905062000f1b565b600062000c8b73146500cfd35b22e4a392fe0adc06de1a1368ed486200097d6401000000000262002d1f176401000000009004565b111562000d455773146500cfd35b22e4a392fe0adc06de1a1368ed48600160006101000a81548173ffffffffffffffffffffffffffffffffffffffff021916908373ffffffffffffffffffffffffffffffffffffffff16021790555062000d3b6040805190810160405280600b81526020017f6574685f72696e6b6562790000000000000000000000000000000000000000008152506200187a6401000000000262003fd9176401000000009004565b6001905062000f1b565b600062000d7a736f485c8bf6fc43ea212e93bbf8ce046c7f1cb4756200097d6401000000000262002d1f176401000000009004565b111562000de057736f485c8bf6fc43ea212e93bbf8ce046c7f1cb475600160006101000a81548173ffffffffffffffffffffffffffffffffffffffff021916908373ffffffffffffffffffffffffffffffffffffffff1602179055506001905062000f1b565b600062000e157320e12a1f859b3feae5fb2a0a32c18f5a65555bbf6200097d6401000000000262002d1f176401000000009004565b111562000e7b577320e12a1f859b3feae5fb2a0a32c18f5a65555bbf600160006101000a81548173ffffffffffffffffffffffffffffffffffffffff021916908373ffffffffffffffffffffffffffffffffffffffff1602179055506001905062000f1b565b600062000eb07351efaf4c8b3c9afbd5ab9f4bbc82784ab6ef8faa6200097d6401000000000262002d1f176401000000009004565b111562000f16577351efaf4c8b3c9afbd5ab9f4bbc82784ab6ef8faa600160006101000a81548173ffffffffffffffffffffffffffffffffffffffff021916908373ffffffffffffffffffffffffffffffffffffffff1602179055506001905062000f1b565b600090505b919050565b600080600160009054906101000a900473ffffffffffffffffffffffffffffffffffffffff1673ffffffffffffffffffffffffffffffffffffffff16148062000fa95750600062000fa7600160009054906101000a900473ffffffffffffffffffffffffffffffffffffffff166200097d6401000000000262002d1f176401000000009004565b145b1562000fd15762000fcf6000620009886401000000000262002d2a176401000000009004565b505b600160009054906101000a900473ffffffffffffffffffffffffffffffffffffffff1673ffffffffffffffffffffffffffffffffffffffff166338cc48316000604051602001526040518163ffffffff167c0100000000000000000000000000000000000000000000000000000000028152600401602060405180830381600087803b15156200106057600080fd5b6102c65a03f115156200107257600080fd5b5050506040518051905073ffffffffffffffffffffffffffffffffffffffff16600260009054906101000a900473ffffffffffffffffffffffffffffffffffffffff1673ffffffffffffffffffffffffffffffffffffffff16141515620011bf57600160009054906101000a900473ffffffffffffffffffffffffffffffffffffffff1673ffffffffffffffffffffffffffffffffffffffff166338cc48316000604051602001526040518163ffffffff167c0100000000000000000000000000000000000000000000000000000000028152600401602060405180830381600087803b15156200116257600080fd5b6102c65a03f115156200117457600080fd5b50505060405180519050600260006101000a81548173ffffffffffffffffffffffffffffffffffffffff021916908373ffffffffffffffffffffffffffffffffffffffff1602179055505b600260009054906101000a900473ffffffffffffffffffffffffffffffffffffffff1673ffffffffffffffffffffffffffffffffffffffff1663524f3889836000604051602001526040518263ffffffff167c01000000000000000000000000000000000000000000000000000000000281526004018080602001828103825283818151815260200191508051906020019080838360005b838110156200127457808201518184015260208101905062001257565b50505050905090810190601f168015620012a25780820380516001836020036101000a031916815260200191505b5092505050602060405180830381600087803b1515620012c157600080fd5b6102c65a03f11515620012d357600080fd5b505050604051805190509050919050565b6000806000600160009054906101000a900473ffffffffffffffffffffffffffffffffffffffff1673ffffffffffffffffffffffffffffffffffffffff1614806200136f575060006200136d600160009054906101000a900473ffffffffffffffffffffffffffffffffffffffff166200097d6401000000000262002d1f176401000000009004565b145b156200139757620013956000620009886401000000000262002d2a176401000000009004565b505b600160009054906101000a900473ffffffffffffffffffffffffffffffffffffffff1673ffffffffffffffffffffffffffffffffffffffff166338cc48316000604051602001526040518163ffffffff167c0100000000000000000000000000000000000000000000000000000000028152600401602060405180830381600087803b15156200142657600080fd5b6102c65a03f115156200143857600080fd5b5050506040518051905073ffffffffffffffffffffffffffffffffffffffff16600260009054906101000a900473ffffffffffffffffffffffffffffffffffffffff1673ffffffffffffffffffffffffffffffffffffffff161415156200158557600160009054906101000a900473ffffffffffffffffffffffffffffffffffffffff1673ffffffffffffffffffffffffffffffffffffffff166338cc48316000604051602001526040518163ffffffff167c0100000000000000000000000000000000000000000000000000000000028152600401602060405180830381600087803b15156200152857600080fd5b6102c65a03f115156200153a57600080fd5b50505060405180519050600260006101000a81548173ffffffffffffffffffffffffffffffffffffffff021916908373ffffffffffffffffffffffffffffffffffffffff1602179055505b600260009054906101000a900473ffffffffffffffffffffffffffffffffffffffff1673ffffffffffffffffffffffffffffffffffffffff16632ef3accc86856000604051602001526040518363ffffffff167c01000000000000000000000000000000000000000000000000000000000281526004018080602001838152602001828103825284818151815260200191508051906020019080838360005b838110156200164157808201518184015260208101905062001624565b50505050905090810190601f1680156200166f5780820380516001836020036101000a031916815260200191505b509350505050602060405180830381600087803b15156200168f57600080fd5b6102c65a03f11515620016a157600080fd5b505050604051805190509050823a02670de0b6b3a764000001811115620016cf576000600102915062001871565b600260009054906101000a900473ffffffffffffffffffffffffffffffffffffffff1673ffffffffffffffffffffffffffffffffffffffff1663c51be90f82888888886000604051602001526040518663ffffffff167c0100000000000000000000000000000000000000000000000000000000028152600401808581526020018060200180602001848152602001838103835286818151815260200191508051906020019080838360005b83811015620017985780820151818401526020810190506200177b565b50505050905090810190601f168015620017c65780820380516001836020036101000a031916815260200191505b50838103825285818151815260200191508051906020019080838360005b8381101562001801578082015181840152602081019050620017e4565b50505050905090810190601f1680156200182f5780820380516001836020036101000a031916815260200191505b5096505050505050506020604051808303818588803b15156200185157600080fd5b6125ee5a03f115156200186357600080fd5b505050506040518051905091505b50949350505050565b80600390805190602001906200189292919062001896565b5050565b828054600181600116156101000203166002900490600052602060002090601f016020900481019282601f10620018d957805160ff19168380011785556200190a565b828001600101855582156200190a579182015b8281111562001909578251825591602001919060010190620018ec565b5b5090506200191991906200191d565b5090565b6200194291905b808211156200193e57600081600090555060010162001924565b5090565b90565b6147a880620019556000396000f300606060405260043610610196576000357c0100000000000000000000000000000000000000000000000000000000900463ffffffff16806302d05d3f1461019b578063053f14da146101f05780630c8eb67514610219578063210663e4146102a757806327dc297e146102fc5780632fed1b0014610366578063315a095d1461038f5780633270bb5b146103b257806336a0d20f146103df57806338bbfa501461040e5780633bc6db30146104bb5780633f7f4f17146104d0578063411449bb1461051d57806346b1a105146105465780634c258eb11461057557806356357d91146105b05780635b7c2dad1461063e5780635ea7867a1461068b578063614d08f8146107195780636cee3abb146107a75780638af6375f146107fc578063930a9d9214610825578063a68e5ad014610899578063b31eaa74146108bc578063b5471dee146108e5578063bb4b57341461090e578063c32b1dfa14610937578063ed38fa8f14610960578063edf7b0af14610989578063f348e8b2146109b2578063fa3fa196146109db578063fc51b9c514610a14575b600080fd5b34156101a657600080fd5b6101ae610a62565b604051808273ffffffffffffffffffffffffffffffffffffffff1673ffffffffffffffffffffffffffffffffffffffff16815260200191505060405180910390f35b34156101fb57600080fd5b610203610a87565b6040518082815260200191505060405180910390f35b341561022457600080fd5b61022c610a8d565b6040518080602001828103825283818151815260200191508051906020019080838360005b8381101561026c578082015181840152602081019050610251565b50505050905090810190601f1680156102995780820380516001836020036101000a031916815260200191505b509250505060405180910390f35b34156102b257600080fd5b6102ba610b2b565b604051808273ffffffffffffffffffffffffffffffffffffffff1673ffffffffffffffffffffffffffffffffffffffff16815260200191505060405180910390f35b341561030757600080fd5b61036460048080356000191690602001909190803590602001908201803590602001908080601f01602080910402602001604051908101604052809392919081815260200183838082843782019150505050505091905050610b51565b005b341561037157600080fd5b610379610b83565b6040518082815260200191505060405180910390f35b341561039a57600080fd5b6103b06004808035906020019091905050610b89565b005b34156103bd57600080fd5b6103c5610d10565b604051808215151515815260200191505060405180910390f35b34156103ea57600080fd5b6103f2610d23565b604051808260ff1660ff16815260200191505060405180910390f35b341561041957600080fd5b6104b960048080356000191690602001909190803590602001908201803590602001908080601f0160208091040260200160405190810160405280939291908181526020018383808284378201915050505050509190803590602001908201803590602001908080601f01602080910402602001604051908101604052809392919081815260200183838082843782019150505050505091905050610d28565b005b34156104c657600080fd5b6104ce610eb9565b005b34156104db57600080fd5b610507600480803573ffffffffffffffffffffffffffffffffffffffff16906020019091905050610fa5565b6040518082815260200191505060405180910390f35b341561052857600080fd5b610530610fee565b6040518082815260200191505060405180910390f35b341561055157600080fd5b610559610ff5565b604051808260ff1660ff16815260200191505060405180910390f35b341561058057600080fd5b61059a600480803560001916906020019091905050610ffa565b6040518082815260200191505060405180910390f35b34156105bb57600080fd5b6105c361104c565b6040518080602001828103825283818151815260200191508051906020019080838360005b838110156106035780820151818401526020810190506105e8565b50505050905090810190601f1680156106305780820380516001836020036101000a031916815260200191505b509250505060405180910390f35b341561064957600080fd5b610675600480803573ffffffffffffffffffffffffffffffffffffffff169060200190919050506110ea565b6040518082815260200191505060405180910390f35b341561069657600080fd5b61069e611136565b6040518080602001828103825283818151815260200191508051906020019080838360005b838110156106de5780820151818401526020810190506106c3565b50505050905090810190601f16801561070b5780820380516001836020036101000a031916815260200191505b509250505060405180910390f35b341561072457600080fd5b61072c6111d4565b6040518080602001828103825283818151815260200191508051906020019080838360005b8381101561076c578082015181840152602081019050610751565b50505050905090810190601f1680156107995780820380516001836020036101000a031916815260200191505b509250505060405180910390f35b34156107b257600080fd5b6107ba611272565b604051808273ffffffffffffffffffffffffffffffffffffffff1673ffffffffffffffffffffffffffffffffffffffff16815260200191505060405180910390f35b341561080757600080fd5b61080f611298565b6040518082815260200191505060405180910390f35b341561083057600080fd5b610883600480806060019091908060a001909190803590602001909190803590602001909190803560ff16906020019091908035600019169060200190919080356000191690602001909190505061129e565b6040518082815260200191505060405180910390f35b34156108a457600080fd5b6108ba60048080359060200190919050506117f9565b005b34156108c757600080fd5b6108cf611934565b6040518082815260200191505060405180910390f35b34156108f057600080fd5b6108f861193f565b6040518082815260200191505060405180910390f35b341561091957600080fd5b610921611945565b6040518082815260200191505060405180910390f35b341561094257600080fd5b61094a61194b565b6040518082815260200191505060405180910390f35b341561096b57600080fd5b610973611951565b6040518082815260200191505060405180910390f35b341561099457600080fd5b61099c611957565b6040518082815260200191505060405180910390f35b34156109bd57600080fd5b6109c561195d565b6040518082815260200191505060405180910390f35b34156109e657600080fd5b610a12600480803573ffffffffffffffffffffffffffffffffffffffff16906020019091905050611963565b005b3415610a1f57600080fd5b610a4c600480806060019091908060a0019091908035906020019091908035906020019091905050611ab8565b6040518082815260200191505060405180910390f35b6000809054906101000a900473ffffffffffffffffffffffffffffffffffffffff1681565b60125481565b60118054600181600116156101000203166002900480601f016020809104026020016040519081016040528092919081815260200182805460018160011615610100020316600290048015610b235780601f10610af857610100808354040283529160200191610b23565b820191906000526020600020905b815481529060010190602001808311610b0657829003601f168201915b505050505081565b600860009054906101000a900473ffffffffffffffffffffffffffffffffffffffff1681565b610b7f82826000604051805910610b655750595b9080825280601f01601f1916602001820160405250610d28565b5050565b600b5481565b600081601760003373ffffffffffffffffffffffffffffffffffffffff1673ffffffffffffffffffffffffffffffffffffffff1681526020019081526020016000205410151515610bd957600080fd5b610c2b82601760003373ffffffffffffffffffffffffffffffffffffffff1673ffffffffffffffffffffffffffffffffffffffff16815260200190815260200160002054611d7890919063ffffffff16565b905080601760003373ffffffffffffffffffffffffffffffffffffffff1673ffffffffffffffffffffffffffffffffffffffff16815260200190815260200160002081905550610cbe3383600860009054906101000a900473ffffffffffffffffffffffffffffffffffffffff1673ffffffffffffffffffffffffffffffffffffffff16611d919092919063ffffffff16565b3373ffffffffffffffffffffffffffffffffffffffff167f60ede3b17b4e31768b93d5237d5fceb759f4d879bc5bb7c916a42ebaa311e6e6826040518082815260200191505060405180910390a25050565b601460009054906101000a900460ff1681565b600181565b60156000846000191660001916815260200190815260200160002060009054906101000a900460ff161515610d5c57600080fd5b610d64611e64565b73ffffffffffffffffffffffffffffffffffffffff163373ffffffffffffffffffffffffffffffffffffffff16141515610d9d57600080fd5b8160119080519060200190610db3929190614201565b50610dc082600b5461217e565b6012819055507f3e19f2256bddc30aeab8054ccbd86723452d07f687b94441de69c05ee212dafa826040518080602001828103825283818151815260200191508051906020019080838360005b83811015610e28578082015181840152602081019050610e0d565b50505050905090810190601f168015610e555780820380516001836020036101000a031916815260200191505b509250505060405180910390a160156000846000191660001916815260200190815260200160002060006101000a81549060ff0219169055610e95612478565b601460009054906101000a900460ff161515610eb457610eb3612519565b5b505050565b6000601460009054906101000a900460ff161515610ed657600080fd5b601660003373ffffffffffffffffffffffffffffffffffffffff1673ffffffffffffffffffffffffffffffffffffffff168152602001908152602001600020905060008160020154141515610f5a57610f5933827fffffffffffffffffffffffffffffffffffffffffffffffffffffffffffffffff846002015402601354612804565b5b610fa2601760003373ffffffffffffffffffffffffffffffffffffffff1673ffffffffffffffffffffffffffffffffffffffff16815260200190815260200160002054610b89565b50565b6000601760008373ffffffffffffffffffffffffffffffffffffffff1673ffffffffffffffffffffffffffffffffffffffff168152602001908152602001600020549050919050565b620493e081565b600081565b6000611045601960008460001916600019168152602001908152602001600020546018600085600019166000191681526020019081526020016000205461296790919063ffffffff16565b9050919050565b600e8054600181600116156101000203166002900480601f0160208091040260200160405190810160405280929190818152602001828054600181600116156101000203166002900480156110e25780601f106110b7576101008083540402835291602001916110e2565b820191906000526020600020905b8154815290600101906020018083116110c557829003601f168201915b505050505081565b6000601660008373ffffffffffffffffffffffffffffffffffffffff1673ffffffffffffffffffffffffffffffffffffffff168152602001908152602001600020600201549050919050565b600f8054600181600116156101000203166002900480601f0160208091040260200160405190810160405280929190818152602001828054600181600116156101000203166002900480156111cc5780601f106111a1576101008083540402835291602001916111cc565b820191906000526020600020905b8154815290600101906020018083116111af57829003601f168201915b505050505081565b60068054600181600116156101000203166002900480601f01602080910402602001604051908101604052809291908181526020018280546001816001161561010002031660029004801561126a5780601f1061123f5761010080835404028352916020019161126a565b820191906000526020600020905b81548152906001019060200180831161124d57829003601f168201915b505050505081565b600760009054906101000a900473ffffffffffffffffffffffffffffffffffffffff1681565b601a5481565b60006112a8614281565b6000806000601460009054906101000a900460ff161515156112c957600080fd5b60008a141580156112db575060008914155b15156112e657600080fd5b6112f9898b6129cf90919063ffffffff16565b151561130457600080fd5b61137b8c600380602002604051908101604052809291908260036020028082843782019150505050508c600580602002604051908101604052809291908260056020028082843782019150505050508c3073ffffffffffffffffffffffffffffffffffffffff166129e9909392919063ffffffff16565b9350600073ffffffffffffffffffffffffffffffffffffffff16846020015173ffffffffffffffffffffffffffffffffffffffff1614806113eb57503373ffffffffffffffffffffffffffffffffffffffff16846020015173ffffffffffffffffffffffffffffffffffffffff16145b15156113f657600080fd5b600073ffffffffffffffffffffffffffffffffffffffff16846000015173ffffffffffffffffffffffffffffffffffffffff161415801561146b5750836020015173ffffffffffffffffffffffffffffffffffffffff16846000015173ffffffffffffffffffffffffffffffffffffffff1614155b151561147657600080fd5b836000015173ffffffffffffffffffffffffffffffffffffffff1673__OrderLib______________________________638163681e90918661010001518b8b8b6000604051602001526040518663ffffffff167c0100000000000000000000000000000000000000000000000000000000028152600401808673ffffffffffffffffffffffffffffffffffffffff1673ffffffffffffffffffffffffffffffffffffffff16815260200185600019166000191681526020018460ff1660ff168152602001836000191660001916815260200182600019166000191681526020019550505050505060206040518083038186803b151561157457600080fd5b6102c65a03f4151561158557600080fd5b50505060405180519050151561159a57600080fd5b8360c00151421015156115f35783610100015160001916600060018111156115be57fe5b7fe6104340582083fe7674a149f8da127b9d3d7f74a88ccd7610562eb5b61b919360405160405180910390a3600094506117ea565b611613611604856101000151610ffa565b8b612b7b90919063ffffffff16565b92506000831415611669578361010001516000191660018081111561163457fe5b7fe6104340582083fe7674a149f8da127b9d3d7f74a88ccd7610562eb5b61b919360405160405180910390a3600094506117ea565b611673838a612b92565b945061168d84600001518560200151878760a00151612bbb565b6116c08560186000876101000151600019166000191681526020019081526020016000205461296790919063ffffffff16565b6018600086610100015160001916600019168152602001908152602001600020819055506000915060009050600073ffffffffffffffffffffffffffffffffffffffff16846040015173ffffffffffffffffffffffffffffffffffffffff16141515611739576000846060015150506000846080015150505b836040015173ffffffffffffffffffffffffffffffffffffffff16846020015173ffffffffffffffffffffffffffffffffffffffff16856000015173ffffffffffffffffffffffffffffffffffffffff167f75cbdb818111666ee7e206d94dfeb2d679055e8bc6f34b6f5d30272edd4099908886868a610100015160405180858152602001848152602001838152602001826000191660001916815260200194505050505060405180910390a48494505b50505050979650505050505050565b600061184a333084600860009054906101000a900473ffffffffffffffffffffffffffffffffffffffff1673ffffffffffffffffffffffffffffffffffffffff16612bf9909392919063ffffffff16565b61189c82601760003373ffffffffffffffffffffffffffffffffffffffff1673ffffffffffffffffffffffffffffffffffffffff16815260200190815260200160002054612d0190919063ffffffff16565b905080601760003373ffffffffffffffffffffffffffffffffffffffff1673ffffffffffffffffffffffffffffffffffffffff168152602001908152602001600020819055503373ffffffffffffffffffffffffffffffffffffffff167f60ede3b17b4e31768b93d5237d5fceb759f4d879bc5bb7c916a42ebaa311e6e6826040518082815260200191505060405180910390a25050565b66071afd498d000081565b60095481565b600d5481565b600a5481565b60105481565b600c5481565b60135481565b6000809054906101000a900473ffffffffffffffffffffffffffffffffffffffff1673ffffffffffffffffffffffffffffffffffffffff163373ffffffffffffffffffffffffffffffffffffffff161415156119be57600080fd5b600073ffffffffffffffffffffffffffffffffffffffff168173ffffffffffffffffffffffffffffffffffffffff16141515156119fa57600080fd5b8073ffffffffffffffffffffffffffffffffffffffff166000809054906101000a900473ffffffffffffffffffffffffffffffffffffffff1673ffffffffffffffffffffffffffffffffffffffff167f7f11fe0c7098e1a76afcc68f35abaa07ef156fa7d6dd2d39664812fe37348d1660405160405180910390a3806000806101000a81548173ffffffffffffffffffffffffffffffffffffffff021916908373ffffffffffffffffffffffffffffffffffffffff16021790555050565b6000611ac2614281565b6000808414158015611ae35750611ae285856129cf90919063ffffffff16565b5b1515611aee57600080fd5b601460009054906101000a900460ff16151515611b0a57600080fd5b611b8187600380602002604051908101604052809291908260036020028082843782019150505050508760058060200260405190810160405280929190826005602002808284378201915050505050873073ffffffffffffffffffffffffffffffffffffffff166129e9909392919063ffffffff16565b91503373ffffffffffffffffffffffffffffffffffffffff16826000015173ffffffffffffffffffffffffffffffffffffffff16141515611bc157600080fd5b8160c0015142101515611c1a578161010001516000191660006001811115611be557fe5b7fe6104340582083fe7674a149f8da127b9d3d7f74a88ccd7610562eb5b61b919360405160405180910390a360009250611d6e565b611c3a611c2b836101000151610ffa565b86612b7b90919063ffffffff16565b90506000811415611c905781610100015160001916600180811115611c5b57fe5b7fe6104340582083fe7674a149f8da127b9d3d7f74a88ccd7610562eb5b61b919360405160405180910390a360009250611d6e565b611c9a8482612b92565b9250611ccf8360196000856101000151600019166000191681526020019081526020016000205461296790919063ffffffff16565b60196000846101000151600019166000191681526020019081526020016000208190555081610100015160001916826040015173ffffffffffffffffffffffffffffffffffffffff16836000015173ffffffffffffffffffffffffffffffffffffffff167f7de4479e80e82e22edb1e0010433c8befc804c34988024fa0b0234715102cd8f866040518082815260200191505060405180910390a48292505b5050949350505050565b6000828211151515611d8657fe5b818303905092915050565b8273ffffffffffffffffffffffffffffffffffffffff1663a9059cbb83836000604051602001526040518363ffffffff167c0100000000000000000000000000000000000000000000000000000000028152600401808373ffffffffffffffffffffffffffffffffffffffff1673ffffffffffffffffffffffffffffffffffffffff16815260200182815260200192505050602060405180830381600087803b1515611e3c57600080fd5b6102c65a03f11515611e4d57600080fd5b505050604051805190501515611e5f57fe5b505050565b600080600160009054906101000a900473ffffffffffffffffffffffffffffffffffffffff1673ffffffffffffffffffffffffffffffffffffffff161480611ed657506000611ed4600160009054906101000a900473ffffffffffffffffffffffffffffffffffffffff16612d1f565b145b15611ee757611ee56000612d2a565b505b600160009054906101000a900473ffffffffffffffffffffffffffffffffffffffff1673ffffffffffffffffffffffffffffffffffffffff166338cc48316000604051602001526040518163ffffffff167c0100000000000000000000000000000000000000000000000000000000028152600401602060405180830381600087803b1515611f7557600080fd5b6102c65a03f11515611f8657600080fd5b5050506040518051905073ffffffffffffffffffffffffffffffffffffffff16600260009054906101000a900473ffffffffffffffffffffffffffffffffffffffff1673ffffffffffffffffffffffffffffffffffffffff161415156120d057600160009054906101000a900473ffffffffffffffffffffffffffffffffffffffff1673ffffffffffffffffffffffffffffffffffffffff166338cc48316000604051602001526040518163ffffffff167c0100000000000000000000000000000000000000000000000000000000028152600401602060405180830381600087803b151561207457600080fd5b6102c65a03f1151561208557600080fd5b50505060405180519050600260006101000a81548173ffffffffffffffffffffffffffffffffffffffff021916908373ffffffffffffffffffffffffffffffffffffffff1602179055505b600260009054906101000a900473ffffffffffffffffffffffffffffffffffffffff1673ffffffffffffffffffffffffffffffffffffffff1663c281d19e6000604051602001526040518163ffffffff167c0100000000000000000000000000000000000000000000000000000000028152600401602060405180830381600087803b151561215e57600080fd5b6102c65a03f1151561216f57600080fd5b50505060405180519050905090565b6000612188614313565b60008060008693506000925060009150600090505b83518110156124595760307f01000000000000000000000000000000000000000000000000000000000000000284828151811015156121d857fe5b9060200101517f010000000000000000000000000000000000000000000000000000000000000090047f0100000000000000000000000000000000000000000000000000000000000000027effffffffffffffffffffffffffffffffffffffffffffffffffffffffffffff1916101580156122f0575060397f010000000000000000000000000000000000000000000000000000000000000002848281518110151561228057fe5b9060200101517f010000000000000000000000000000000000000000000000000000000000000090047f0100000000000000000000000000000000000000000000000000000000000000027effffffffffffffffffffffffffffffffffffffffffffffffffffffffffffff191611155b156123a157811561231357600086141561230957612459565b8580600190039650505b600a830292506030848281518110151561232957fe5b9060200101517f010000000000000000000000000000000000000000000000000000000000000090047f0100000000000000000000000000000000000000000000000000000000000000027f01000000000000000000000000000000000000000000000000000000000000009004038301925061244c565b602e7f01000000000000000000000000000000000000000000000000000000000000000284828151811015156123d357fe5b9060200101517f010000000000000000000000000000000000000000000000000000000000000090047f0100000000000000000000000000000000000000000000000000000000000000027effffffffffffffffffffffffffffffffffffffffffffffffffffffffffffff1916141561244b57600191505b5b808060010191505061219d565b600086111561246b5785600a0a830292505b8294505050505092915050565b601460009054906101000a900460ff161561249257612517565b600d544211156124bc576001601460006101000a81548160ff0219169083151502179055506124f5565b6009546012541015806124d35750600a5460125411155b156124f4576001601460006101000a81548160ff0219169083151502179055505b5b601460009054906101000a900460ff1615612516576125156012546131c2565b5b5b565b60003073ffffffffffffffffffffffffffffffffffffffff16316125d6600e8054600181600116156101000203166002900480601f0160208091040260200160405190810160405280929190818152602001828054600181600116156101000203166002900480156125cc5780601f106125a1576101008083540402835291602001916125cc565b820191906000526020600020905b8154815290600101906020018083116125af57829003601f168201915b5050505050613203565b1115612659577fe750bf6f639779f7bfd02493951a574664a66545051924fed175830841c530b260405160405180910390a16040805190810160405280600681526020017f4641494c4544000000000000000000000000000000000000000000000000000081525060119080519060200190612653929190614201565b50612801565b7fa3265d26377908f39dfc3e19ef2e4e49d48e740bcfa5f52711d6a40f0118c5d860405160405180910390a16127ca601054600e8054600181600116156101000203166002900480601f0160208091040260200160405190810160405280929190818152602001828054600181600116156101000203166002900480156127215780601f106126f657610100808354040283529160200191612721565b820191906000526020600020905b81548152906001019060200180831161270457829003601f168201915b5050505050600f8054600181600116156101000203166002900480601f0160208091040260200160405190810160405280929190818152602001828054600181600116156101000203166002900480156127bc5780601f10612791576101008083540402835291602001916127bc565b820191906000526020600020905b81548152906001019060200180831161279f57829003601f168201915b5050505050620493e061358f565b9050600160156000836000191660001916815260200190815260200160002060006101000a81548160ff0219169083151502179055505b50565b6000806000809250849150600086600101805490501415151561282357fe5b5b6000821415156129495785600101600187600101805490500381548110151561284957fe5b9060005260206000209060020201905061286282613ae3565b61286f8260010154613ae3565b1115156128d75761289f612890600a54600954600c54856001015489613b01565b84612d0190919063ffffffff16565b92506128b881600101548361296790919063ffffffff16565b9150856001018054809190600190036128d19190614327565b50612944565b6128ee82826001015461296790919063ffffffff16565b816001018190555061293d61292e600a54600954600c547fffffffffffffffffffffffffffffffffffffffffffffffffffffffffffffffff870289613b01565b84612d0190919063ffffffff16565b9250612949565b612824565b60008314151561295e5761295d8784613b6a565b5b50505050505050565b600080828401905061297984846129cf565b1515612987578091506129c8565b6000841215156129ad578360ff60019060020a02190383131515156129a857fe5b6129c4565b8360ff60019060020a020383121515156129c357fe5b5b8091505b5092915050565b6000818314806129e157506000828402135b905092915050565b6129f1614281565b836000600381101515612a0057fe5b6020020151816000019073ffffffffffffffffffffffffffffffffffffffff16908173ffffffffffffffffffffffffffffffffffffffff1681525050836001600381101515612a4b57fe5b6020020151816020019073ffffffffffffffffffffffffffffffffffffffff16908173ffffffffffffffffffffffffffffffffffffffff1681525050836002600381101515612a9657fe5b6020020151816040019073ffffffffffffffffffffffffffffffffffffffff16908173ffffffffffffffffffffffffffffffffffffffff1681525050826000600581101515612ae157fe5b6020020151816060018181525050826001600581101515612afe57fe5b6020020151816080018181525050826002600581101515612b1b57fe5b60200201518160a0018181525050826003600581101515612b3857fe5b60200201518160c0018181525050818160e0018181525050612b5c85858585613cbc565b8161010001906000191690816000191681525050809050949350505050565b6000612b8a8383600003612967565b905092915050565b6000612b9d82613ae3565b612ba684613ae3565b10612bb15781612bb3565b825b905092915050565b612bc6848383613eaa565b612bf3837fffffffffffffffffffffffffffffffffffffffffffffffffffffffffffffffff840283613eaa565b50505050565b8373ffffffffffffffffffffffffffffffffffffffff166323b872dd8484846000604051602001526040518463ffffffff167c0100000000000000000000000000000000000000000000000000000000028152600401808473ffffffffffffffffffffffffffffffffffffffff1673ffffffffffffffffffffffffffffffffffffffff1681526020018373ffffffffffffffffffffffffffffffffffffffff1673ffffffffffffffffffffffffffffffffffffffff1681526020018281526020019350505050602060405180830381600087803b1515612cd857600080fd5b6102c65a03f11515612ce957600080fd5b505050604051805190501515612cfb57fe5b50505050565b6000808284019050838110151515612d1557fe5b8091505092915050565b6000813b9050919050565b600080612d4a731d3b2638a7cc9f2cb3d298a3da7a90b67e5506ed612d1f565b1115612dec57731d3b2638a7cc9f2cb3d298a3da7a90b67e5506ed600160006101000a81548173ffffffffffffffffffffffffffffffffffffffff021916908373ffffffffffffffffffffffffffffffffffffffff160217905550612de36040805190810160405280600b81526020017f6574685f6d61696e6e6574000000000000000000000000000000000000000000815250613fd9565b600190506131bd565b6000612e0b73c03a2615d5efaf5f49f60b7bb6583eaec212fdf1612d1f565b1115612ead5773c03a2615d5efaf5f49f60b7bb6583eaec212fdf1600160006101000a81548173ffffffffffffffffffffffffffffffffffffffff021916908373ffffffffffffffffffffffffffffffffffffffff160217905550612ea46040805190810160405280600c81526020017f6574685f726f707374656e330000000000000000000000000000000000000000815250613fd9565b600190506131bd565b6000612ecc73b7a07bcf2ba2f2703b24c0691b5278999c59ac7e612d1f565b1115612f6e5773b7a07bcf2ba2f2703b24c0691b5278999c59ac7e600160006101000a81548173ffffffffffffffffffffffffffffffffffffffff021916908373ffffffffffffffffffffffffffffffffffffffff160217905550612f656040805190810160405280600981526020017f6574685f6b6f76616e0000000000000000000000000000000000000000000000815250613fd9565b600190506131bd565b6000612f8d73146500cfd35b22e4a392fe0adc06de1a1368ed48612d1f565b111561302f5773146500cfd35b22e4a392fe0adc06de1a1368ed48600160006101000a81548173ffffffffffffffffffffffffffffffffffffffff021916908373ffffffffffffffffffffffffffffffffffffffff1602179055506130266040805190810160405280600b81526020017f6574685f72696e6b656279000000000000000000000000000000000000000000815250613fd9565b600190506131bd565b600061304e736f485c8bf6fc43ea212e93bbf8ce046c7f1cb475612d1f565b11156130b257736f485c8bf6fc43ea212e93bbf8ce046c7f1cb475600160006101000a81548173ffffffffffffffffffffffffffffffffffffffff021916908373ffffffffffffffffffffffffffffffffffffffff160217905550600190506131bd565b60006130d17320e12a1f859b3feae5fb2a0a32c18f5a65555bbf612d1f565b1115613135577320e12a1f859b3feae5fb2a0a32c18f5a65555bbf600160006101000a81548173ffffffffffffffffffffffffffffffffffffffff021916908373ffffffffffffffffffffffffffffffffffffffff160217905550600190506131bd565b60006131547351efaf4c8b3c9afbd5ab9f4bbc82784ab6ef8faa612d1f565b11156131b8577351efaf4c8b3c9afbd5ab9f4bbc82784ab6ef8faa600160006101000a81548173ffffffffffffffffffffffffffffffffffffffff021916908373ffffffffffffffffffffffffffffffffffffffff160217905550600190506131bd565b600090505b919050565b806013819055507f68170b705528d3ff1d324cda28eb28cc3d11ce81207f157c05e11c18411a013c816040518082815260200191505060405180910390a150565b600080600160009054906101000a900473ffffffffffffffffffffffffffffffffffffffff1673ffffffffffffffffffffffffffffffffffffffff16148061327557506000613273600160009054906101000a900473ffffffffffffffffffffffffffffffffffffffff16612d1f565b145b15613286576132846000612d2a565b505b600160009054906101000a900473ffffffffffffffffffffffffffffffffffffffff1673ffffffffffffffffffffffffffffffffffffffff166338cc48316000604051602001526040518163ffffffff167c0100000000000000000000000000000000000000000000000000000000028152600401602060405180830381600087803b151561331457600080fd5b6102c65a03f1151561332557600080fd5b5050506040518051905073ffffffffffffffffffffffffffffffffffffffff16600260009054906101000a900473ffffffffffffffffffffffffffffffffffffffff1673ffffffffffffffffffffffffffffffffffffffff1614151561346f57600160009054906101000a900473ffffffffffffffffffffffffffffffffffffffff1673ffffffffffffffffffffffffffffffffffffffff166338cc48316000604051602001526040518163ffffffff167c0100000000000000000000000000000000000000000000000000000000028152600401602060405180830381600087803b151561341357600080fd5b6102c65a03f1151561342457600080fd5b50505060405180519050600260006101000a81548173ffffffffffffffffffffffffffffffffffffffff021916908373ffffffffffffffffffffffffffffffffffffffff1602179055505b600260009054906101000a900473ffffffffffffffffffffffffffffffffffffffff1673ffffffffffffffffffffffffffffffffffffffff1663524f3889836000604051602001526040518263ffffffff167c01000000000000000000000000000000000000000000000000000000000281526004018080602001828103825283818151815260200191508051906020019080838360005b83811015613522578082015181840152602081019050613507565b50505050905090810190601f16801561354f5780820380516001836020036101000a031916815260200191505b5092505050602060405180830381600087803b151561356d57600080fd5b6102c65a03f1151561357e57600080fd5b505050604051805190509050919050565b6000806000600160009054906101000a900473ffffffffffffffffffffffffffffffffffffffff1673ffffffffffffffffffffffffffffffffffffffff16148061360357506000613601600160009054906101000a900473ffffffffffffffffffffffffffffffffffffffff16612d1f565b145b15613614576136126000612d2a565b505b600160009054906101000a900473ffffffffffffffffffffffffffffffffffffffff1673ffffffffffffffffffffffffffffffffffffffff166338cc48316000604051602001526040518163ffffffff167c0100000000000000000000000000000000000000000000000000000000028152600401602060405180830381600087803b15156136a257600080fd5b6102c65a03f115156136b357600080fd5b5050506040518051905073ffffffffffffffffffffffffffffffffffffffff16600260009054906101000a900473ffffffffffffffffffffffffffffffffffffffff1673ffffffffffffffffffffffffffffffffffffffff161415156137fd57600160009054906101000a900473ffffffffffffffffffffffffffffffffffffffff1673ffffffffffffffffffffffffffffffffffffffff166338cc48316000604051602001526040518163ffffffff167c0100000000000000000000000000000000000000000000000000000000028152600401602060405180830381600087803b15156137a157600080fd5b6102c65a03f115156137b257600080fd5b50505060405180519050600260006101000a81548173ffffffffffffffffffffffffffffffffffffffff021916908373ffffffffffffffffffffffffffffffffffffffff1602179055505b600260009054906101000a900473ffffffffffffffffffffffffffffffffffffffff1673ffffffffffffffffffffffffffffffffffffffff16632ef3accc86856000604051602001526040518363ffffffff167c01000000000000000000000000000000000000000000000000000000000281526004018080602001838152602001828103825284818151815260200191508051906020019080838360005b838110156138b757808201518184015260208101905061389c565b50505050905090810190601f1680156138e45780820380516001836020036101000a031916815260200191505b509350505050602060405180830381600087803b151561390357600080fd5b6102c65a03f1151561391457600080fd5b505050604051805190509050823a02670de0b6b3a7640000018111156139405760006001029150613ada565b600260009054906101000a900473ffffffffffffffffffffffffffffffffffffffff1673ffffffffffffffffffffffffffffffffffffffff1663c51be90f82888888886000604051602001526040518663ffffffff167c0100000000000000000000000000000000000000000000000000000000028152600401808581526020018060200180602001848152602001838103835286818151815260200191508051906020019080838360005b83811015613a075780820151818401526020810190506139ec565b50505050905090810190601f168015613a345780820380516001836020036101000a031916815260200191505b50838103825285818151815260200191508051906020019080838360005b83811015613a6d578082015181840152602081019050613a52565b50505050905090810190601f168015613a9a5780820380516001836020036101000a031916815260200191505b5096505050505050506020604051808303818588803b1515613abb57600080fd5b6125ee5a03f11515613acc57600080fd5b505050506040518051905091505b50949350505050565b600080821215613af857816000039050613afc565b8190505b919050565b6000806000841315613b31578683111515613b1f5760009050613b2c565b613b298388611d78565b90505b613b51565b8583101515613b435760009050613b50565b613b4d8684611d78565b90505b5b84613b5b85613ae3565b82020291505095945050505050565b600081601a5410151515613b7d57600080fd5b613bcf82601760008673ffffffffffffffffffffffffffffffffffffffff1673ffffffffffffffffffffffffffffffffffffffff16815260200190815260200160002054612d0190919063ffffffff16565b905080601760008573ffffffffffffffffffffffffffffffffffffffff1673ffffffffffffffffffffffffffffffffffffffff16815260200190815260200160002081905550613c2a82601a54611d7890919063ffffffff16565b601a819055508273ffffffffffffffffffffffffffffffffffffffff167f60ede3b17b4e31768b93d5237d5fceb759f4d879bc5bb7c916a42ebaa311e6e6826040518082815260200191505060405180910390a27fc6203b6a88d29510779ca9dba6a5e132f609c335e49a244d6d9e842ebaabb270601a546040518082815260200191505060405180910390a1505050565b600084846000600381101515613cce57fe5b6020020151856001600381101515613ce257fe5b6020020151866002600381101515613cf657fe5b6020020151866000600581101515613d0a57fe5b6020020151876001600581101515613d1e57fe5b6020020151886002600581101515613d3257fe5b6020020151896003600581101515613d4657fe5b60200201518a6004600581101515613d5a57fe5b60200201518a604051808b73ffffffffffffffffffffffffffffffffffffffff1673ffffffffffffffffffffffffffffffffffffffff166c010000000000000000000000000281526014018a73ffffffffffffffffffffffffffffffffffffffff1673ffffffffffffffffffffffffffffffffffffffff166c010000000000000000000000000281526014018973ffffffffffffffffffffffffffffffffffffffff1673ffffffffffffffffffffffffffffffffffffffff166c010000000000000000000000000281526014018873ffffffffffffffffffffffffffffffffffffffff1673ffffffffffffffffffffffffffffffffffffffff166c010000000000000000000000000281526014018781526020018681526020018581526020018481526020018381526020018281526020019a505050505050505050505060405180910390209050949350505050565b600080601660008673ffffffffffffffffffffffffffffffffffffffff1673ffffffffffffffffffffffffffffffffffffffff1681526020019081526020016000209150600082600201541480613f145750613f138483600201546129cf90919063ffffffff16565b5b15613f2a57613f2582868686613ff3565b613fb3565b7fffffffffffffffffffffffffffffffffffffffffffffffffffffffffffffffff84028260020154121515613f6a57613f6585838686612804565b613fb2565b613f9c85837fffffffffffffffffffffffffffffffffffffffffffffffffffffffffffffffff85600201540286612804565b838260020154019050613fb182868386613ff3565b5b5b613fca84836002015461296790919063ffffffff16565b82600201819055505050505050565b8060039080519060200190613fef929190614201565b5050565b6000614008600a54600954600c548686613b01565b90506140148482614072565b84600101805480600101828161402a9190614359565b91600052602060002090600202016000604080519081016040528086815260200187815250909190915060008201518160000155602082015181600101555050505050505050565b600081601760008573ffffffffffffffffffffffffffffffffffffffff1673ffffffffffffffffffffffffffffffffffffffff16815260200190815260200160002054101515156140c257600080fd5b61411482601760008673ffffffffffffffffffffffffffffffffffffffff1673ffffffffffffffffffffffffffffffffffffffff16815260200190815260200160002054611d7890919063ffffffff16565b905080601760008573ffffffffffffffffffffffffffffffffffffffff1673ffffffffffffffffffffffffffffffffffffffff1681526020019081526020016000208190555061416f82601a54612d0190919063ffffffff16565b601a819055508273ffffffffffffffffffffffffffffffffffffffff167f60ede3b17b4e31768b93d5237d5fceb759f4d879bc5bb7c916a42ebaa311e6e6826040518082815260200191505060405180910390a27fc6203b6a88d29510779ca9dba6a5e132f609c335e49a244d6d9e842ebaabb270601a546040518082815260200191505060405180910390a1505050565b828054600181600116156101000203166002900490600052602060002090601f016020900481019282601f1061424257805160ff1916838001178555614270565b82800160010185558215614270579182015b8281111561426f578251825591602001919060010190614254565b5b50905061427d919061438b565b5090565b61012060405190810160405280600073ffffffffffffffffffffffffffffffffffffffff168152602001600073ffffffffffffffffffffffffffffffffffffffff168152602001600073ffffffffffffffffffffffffffffffffffffffff1681526020016000815260200160008152602001600081526020016000815260200160008152602001600080191681525090565b602060405190810160405280600081525090565b8154818355818115116143545760020281600202836000526020600020918201910161435391906143b0565b5b505050565b8154818355818115116143865760020281600202836000526020600020918201910161438591906143b0565b5b505050565b6143ad91905b808211156143a9576000816000905550600101614391565b5090565b90565b6143dc91905b808211156143d8576000808201600090556001820160009055506002016143b6565b5090565b90565b6000600160009054906101000a900473ffffffffffffffffffffffffffffffffffffffff1673ffffffffffffffffffffffffffffffffffffffff1614806144505750600061444e600160009054906101000a900473ffffffffffffffffffffffffffffffffffffffff16612d1f565b145b156144615761445f6000612d2a565b505b600160009054906101000a900473ffffffffffffffffffffffffffffffffffffffff1673ffffffffffffffffffffffffffffffffffffffff166338cc48316000604051602001526040518163ffffffff167c0100000000000000000000000000000000000000000000000000000000028152600401602060405180830381600087803b15156144ef57600080fd5b6102c65a03f1151561450057600080fd5b5050506040518051905073ffffffffffffffffffffffffffffffffffffffff16600260009054906101000a900473ffffffffffffffffffffffffffffffffffffffff1673ffffffffffffffffffffffffffffffffffffffff1614151561464a57600160009054906101000a900473ffffffffffffffffffffffffffffffffffffffff1673ffffffffffffffffffffffffffffffffffffffff166338cc48316000604051602001526040518163ffffffff167c0100000000000000000000000000000000000000000000000000000000028152600401602060405180830381600087803b15156145ee57600080fd5b6102c65a03f115156145ff57600080fd5b50505060405180519050600260006101000a81548173ffffffffffffffffffffffffffffffffffffffff021916908373ffffffffffffffffffffffffffffffffffffffff1602179055505b600260009054906101000a900473ffffffffffffffffffffffffffffffffffffffff1673ffffffffffffffffffffffffffffffffffffffff1663688dcfd7826040518263ffffffff167c010000000000000000000000000000000000000000000000000000000002815260040180827effffffffffffffffffffffffffffffffffffffffffffffffffffffffffffff19167effffffffffffffffffffffffffffffffffffffffffffffffffffffffffffff19168152602001915050600060405180830381600087803b151561471e57600080fd5b6102c65a03f1151561472f57600080fd5b50505050565b60008060006010548481151561474757fe5b0491508166071afd498d0000029050600281023073ffffffffffffffffffffffffffffffffffffffff163111925050509190505600a165627a7a723058209bb7d24e3d0dc2e5693ffada73ccb22719564a13fad4348189d99b9008e3e7da0029",
  "source": "/*\n    Copyright 2017 Phillip A. Elsasser\n\n    Licensed under the Apache License, Version 2.0 (the \"License\");\n    you may not use this file except in compliance with the License.\n    You may obtain a copy of the License at\n\n    http://www.apache.org/licenses/LICENSE-2.0\n\n    Unless required by applicable law or agreed to in writing, software\n    distributed under the License is distributed on an \"AS IS\" BASIS,\n    WITHOUT WARRANTIES OR CONDITIONS OF ANY KIND, either express or implied.\n    See the License for the specific language governing permissions and\n    limitations under the License.\n*/\n\npragma solidity 0.4.18;\n\nimport \"./Creatable.sol\";\nimport \"./oraclize/oraclizeAPI.sol\";\nimport \"./libraries/MathLib.sol\";\nimport \"./libraries/OrderLib.sol\";\nimport \"zeppelin-solidity/contracts/token/ERC20.sol\";\nimport \"zeppelin-solidity/contracts/token/SafeERC20.sol\";\n\n// TODO:\n//      add failsafe for pool distribution.\n//      push as much into library as possible\n//      think about circuit breaker in case of issues\n//      discuss build out ability to use ETH vs only ERC20? - WETH?\n//      add open interest to allow users to see outstanding open positions\n//      add function to allow user to pay for an extra query that could trigger settlement\n//      require creator to own arbitrary amount of MEM token\n//      add in fee functionality needed for nodes and the reduced fees for holders of MEM.\n\n/// @title MarketContract first example of a MarketProtocol contract using Oraclize services\n/// @author Phil Elsasser <phil@marketprotcol.io>\ncontract MarketContract is Creatable, usingOraclize  {\n    using MathLib for uint256;\n    using MathLib for int;\n    using OrderLib for address;\n    using OrderLib for OrderLib.Order;\n    using SafeERC20 for ERC20;\n\n    struct UserNetPosition {\n        address userAddress;\n        Position[] positions;   // all open positions (lifo upon exit - allows us to not reindex array!)\n        int netPosition;        // net position across all prices / executions\n    }\n\n    struct Position {\n        uint price;\n        int qty;\n    }\n\n    enum ErrorCodes {\n        ORDER_EXPIRED,              // past designated timestamp\n        ORDER_DEAD                  // order if fully filled or fully cancelled\n    }\n\n    // constants\n    string public CONTRACT_NAME;\n    address public BASE_TOKEN_ADDRESS;\n    ERC20 public BASE_TOKEN;\n    uint public PRICE_CAP;\n    uint public PRICE_FLOOR;\n    uint public PRICE_DECIMAL_PLACES;   // how to convert the pricing from decimal format (if valid) to integer\n    uint public QTY_DECIMAL_PLACES;     // how many tradeable units make up a whole pricing increment\n    uint public EXPIRATION;\n    string public ORACLE_DATA_SOURCE;\n    string public ORACLE_QUERY;\n    uint public ORACLE_QUERY_REPEAT;\n    uint8 constant public BUY_SIDE = 0;\n    uint8 constant public SELL_SIDE = 1;\n    uint constant public COST_PER_QUERY = 2 finney;    // leave static for now, price of first query from oraclize is 0\n    uint constant public QUERY_CALLBACK_GAS = 300000;\n\n    // state variables\n    string public lastPriceQueryResult;\n    uint public lastPrice;\n    uint public settlementPrice;\n    bool public isSettled;\n    mapping(bytes32 => bool) validQueryIDs;\n\n    // accounting\n    mapping(address => UserNetPosition) addressToUserPosition;\n    mapping(address => uint) userAddressToAccountBalance;   // stores account balances allowed to be allocated to orders\n    mapping (bytes32 => int) filledOrderQty;\n    mapping (bytes32 => int) cancelledOrderQty;\n    uint public collateralPoolBalance = 0;                         // current balance of all collateral committed\n\n    // events\n    event OracleQuerySuccess();\n    event OracleQueryFailed();\n    event UpdatedLastPrice(string price);\n    event ContractSettled(uint settlePrice);\n    event UpdatedUserBalance(address indexed user, uint balance);\n    event UpdatedPoolBalance(uint balance);\n    event Error(ErrorCodes indexed errorCode, bytes32 indexed orderHash);\n\n    // order events\n    event OrderFilled(\n        address indexed maker,\n        address indexed taker,\n        address indexed feeRecipient,\n        int filledQty,\n        uint paidMakerFee,\n        uint paidTakerFee,\n        bytes32 orderHash // should this be indexed?\n    );\n    event OrderCancelled(\n        address indexed maker,\n        address indexed feeRecipient,\n        int cancelledQty,\n        bytes32 indexed orderHash\n    );\n\n\n    /// @param contractName viewable name of this contract (BTC/ETH, LTC/ETH, etc)\n    /// @param baseTokenAddress address of the ERC20 token that will be used for collateral and pricing\n    /// @param oracleDataSource a data-source such as \"URL\", \"WolframAlpha\", \"IPFS\"\n    /// see http://docs.oraclize.it/#ethereum-quick-start-simple-query\n    /// @param oracleQuery see http://docs.oraclize.it/#ethereum-quick-start-simple-query for examples\n    /// @param oracleQueryRepeatSeconds how often to repeat this callback to check for settlement, more frequent\n    /// queries require more gas and may not be needed.\n    /// @param floorPrice minimum tradeable price of this contract, contract enters settlement if breached\n    /// @param capPrice maximum tradeable price of this contract, contract enters settlement if breached\n    /// @param priceDecimalPlaces number of decimal places to convert our queried price from a floating point to\n    /// an integer\n    /// @param qtyDecimalPlaces decimal places to multiply traded qty by.\n    /// @param secondsToExpiration - second from now that this contract expires and enters settlement\n    function MarketContract(\n        string contractName,\n        address baseTokenAddress,\n        string oracleDataSource,\n        string oracleQuery,\n        uint oracleQueryRepeatSeconds,\n        uint floorPrice,\n        uint capPrice,\n        uint priceDecimalPlaces,\n        uint qtyDecimalPlaces,\n        uint secondsToExpiration\n    ) public payable {\n\n        require(capPrice > floorPrice);\n        // TODO: check for minimum MEM token balance of caller.\n        oraclize_setProof(proofType_TLSNotary | proofStorage_IPFS);\n        CONTRACT_NAME = contractName;\n        BASE_TOKEN_ADDRESS = baseTokenAddress;\n        BASE_TOKEN = ERC20(baseTokenAddress);\n        PRICE_CAP = capPrice;\n        PRICE_FLOOR = floorPrice;\n        EXPIRATION = now + secondsToExpiration;\n        ORACLE_DATA_SOURCE = oracleDataSource;\n        ORACLE_QUERY = oracleQuery;\n        ORACLE_QUERY_REPEAT = oracleQueryRepeatSeconds;\n        PRICE_DECIMAL_PLACES = priceDecimalPlaces;\n        QTY_DECIMAL_PLACES = qtyDecimalPlaces;\n        require(checkSufficientStartingBalance(secondsToExpiration));\n        queryOracle();  // schedules recursive calls to oracle\n    }\n\n    /*\n    // EXTERNAL METHODS\n    */\n\n    /// @param userAddress address to return position for\n    /// @return the users current open position.\n    function getUserPosition(address userAddress) external view returns (int)  {\n        return addressToUserPosition[userAddress].netPosition;\n    }\n\n    /// @param userAddress address of user\n    /// @return the users currently unallocated token balance\n    function getUserAccountBalance(address userAddress) external view returns (uint) {\n        return userAddressToAccountBalance[userAddress];\n    }\n\n    /// @notice deposits tokens to the smart contract to fund the user account and provide needed tokens for collateral\n    /// pool upon trade matching.\n    /// @param depositAmount qty of ERC20 tokens to deposit to the smart contract to cover open orders and collateral\n    function depositTokensForTrading(uint256 depositAmount) external {\n        // user must call approve!\n        BASE_TOKEN.safeTransferFrom(msg.sender, this, depositAmount);\n        uint256 balanceAfterDeposit = userAddressToAccountBalance[msg.sender].add(depositAmount);\n        userAddressToAccountBalance[msg.sender] = balanceAfterDeposit;\n        UpdatedUserBalance(msg.sender, balanceAfterDeposit);\n    }\n\n    // @notice called by a participant wanting to trade a specific order\n    /// @param orderAddresses - maker, taker and feeRecipient addresses\n    /// @param unsignedOrderValues makerFee, takerFree, price, expirationTimeStamp, and salt (for hashing)\n    /// @param orderQty quantity of the order\n    /// @param qtyToFill quantity taker is willing to fill of original order(max)\n    /// @param v order signature\n    /// @param r order signature\n    /// @param s order signature\n    function tradeOrder(\n        address[3] orderAddresses,\n        uint[5] unsignedOrderValues,\n        int orderQty,\n        int qtyToFill,\n        uint8 v,\n        bytes32 r,\n        bytes32 s\n    ) external returns (int filledQty) {\n        require(!isSettled);                                // no trading past settlement\n        require(orderQty != 0 && qtyToFill != 0);           // no zero trades\n        require(orderQty.isSameSign(qtyToFill));            // signs should match\n        OrderLib.Order memory order = address(this).createOrder(orderAddresses, unsignedOrderValues, orderQty);\n\n        // taker can be anyone, or specifically the caller!\n        require(order.taker == address(0) || order.taker == msg.sender);\n        // do not allow self trade\n        require(order.maker != address(0) && order.maker != order.taker);\n        require(order.maker.isValidSignature(order.orderHash, v, r, s));\n\n        if(now >= order.expirationTimeStamp) {\n            Error(ErrorCodes.ORDER_EXPIRED, order.orderHash);\n            return 0;\n        }\n\n        int remainingQty = orderQty.subtract(getQtyFilledOrCancelledFromOrder(order.orderHash));\n        if(remainingQty == 0) { // there is no qty remaining  - cannot fill!\n            Error(ErrorCodes.ORDER_DEAD, order.orderHash);\n            return 0;\n        }\n\n        filledQty = MathLib.absMin(remainingQty, qtyToFill);\n        updatePositions(order.maker, order.taker, filledQty, order.price);\n        filledOrderQty[order.orderHash] = filledOrderQty[order.orderHash].add(filledQty);\n\n        uint paidMakerFee = 0;\n        uint paidTakerFee = 0;\n\n        if(order.feeRecipient != address(0)) { // we need to transfer fees to recipient\n\n            if(order.makerFee > 0) {\n\n            }\n\n            if(order.takerFee > 0) {\n\n            }\n        }\n\n        OrderFilled(\n            order.maker,\n            order.taker,\n            order.feeRecipient,\n            filledQty,\n            paidMakerFee,\n            paidTakerFee,\n            order.orderHash\n        );\n\n        return filledQty;\n    }\n\n    /// @notice called by the maker of an order to attempt to cancel the order before its expiration time stamp\n    /// @param orderAddresses - maker, taker and feeRecipient addresses\n    /// @param unsignedOrderValues makerFee, takerFree, price, expirationTimeStamp, and salt (for hashing)\n    /// @param orderQty quantity of the order\n    /// @param qtyToCancel quantity maker is attempting to cancel\n    /// @return qty that was successfully cancelled of order.\n    function cancelOrder(\n        address[3] orderAddresses,\n        uint[5] unsignedOrderValues,\n        int orderQty,\n        int qtyToCancel\n    ) external returns (int qtyCancelled){\n        require(qtyToCancel != 0 && qtyToCancel.isSameSign(orderQty));      // cannot cancel 0 and signs must match\n        require(!isSettled);\n        OrderLib.Order memory order = address(this).createOrder(orderAddresses, unsignedOrderValues, orderQty);\n        require(order.maker == msg.sender);                                // only maker can cancel standing order\n        if(now >= order.expirationTimeStamp) {\n            Error(ErrorCodes.ORDER_EXPIRED, order.orderHash);\n            return 0;\n        }\n\n        int remainingQty = orderQty.subtract(getQtyFilledOrCancelledFromOrder(order.orderHash));\n        if(remainingQty == 0) { // there is no qty remaining to cancel order is dead\n            Error(ErrorCodes.ORDER_DEAD, order.orderHash);\n            return 0;\n        }\n\n        qtyCancelled = MathLib.absMin(qtyToCancel, remainingQty);   // we can only cancel what remains\n        cancelledOrderQty[order.orderHash] = cancelledOrderQty[order.orderHash].add(qtyCancelled);\n        OrderCancelled(order.maker, order.feeRecipient, qtyCancelled, order.orderHash);\n        return qtyCancelled;\n    }\n\n\n    // @notice called by a user after settlement has occurred.  This function will finalize all accounting around any\n    // outstanding positions and return all remaining collateral to the caller. This should only be called after\n    // settlement has occurred.\n    function settleAndClose() external {\n        require(isSettled);\n        UserNetPosition storage userNetPos = addressToUserPosition[msg.sender];\n        if(userNetPos.netPosition != 0) {\n            // this user has a position that we need to settle based upon the settlement price of the contract\n            reduceUserNetPosition(msg.sender, userNetPos, userNetPos.netPosition * - 1, settlementPrice);\n        }\n        withdrawTokens(userAddressToAccountBalance[msg.sender]);   // transfer all balances back to user.\n    }\n\n    /*\n    // PUBLIC METHODS\n    */\n\n    /// @param queryID of the returning query, this should match our own internal mapping\n    /// @param result query to be processed\n    /// @param proof result proof\n    function __callback(bytes32 queryID, string result, bytes proof) public {\n        require(validQueryIDs[queryID]);\n        require(msg.sender == oraclize_cbAddress());\n        lastPriceQueryResult = result;\n        lastPrice = parseInt(result, PRICE_DECIMAL_PLACES);\n        UpdatedLastPrice(result);\n        delete validQueryIDs[queryID];\n        checkSettlement();\n        if (!isSettled) {\n            queryOracle();  // set up our next query\n        }\n    }\n\n    /// @notice returns the qty that is no longer available to trade for a given order\n    /// @param orderHash hash of order to find filled and cancelled qty\n    /// @return int quantity that is no longer able to filled from the supplied order hash\n    function getQtyFilledOrCancelledFromOrder(bytes32 orderHash) public view returns (int) {\n        return filledOrderQty[orderHash].add(cancelledOrderQty[orderHash]);\n    }\n\n    /// @notice removes token from users trading account\n    /// @param withdrawAmount qty of token to attempt to withdraw\n    function withdrawTokens(uint256 withdrawAmount) public {\n        require(userAddressToAccountBalance[msg.sender] >= withdrawAmount);   // ensure sufficient balance\n        uint256 balanceAfterWithdrawal = userAddressToAccountBalance[msg.sender].subtract(withdrawAmount);\n        userAddressToAccountBalance[msg.sender] = balanceAfterWithdrawal;   // update balance before external call!\n        BASE_TOKEN.safeTransfer(msg.sender, withdrawAmount);\n        UpdatedUserBalance(msg.sender, balanceAfterWithdrawal);\n    }\n\n    /*\n    // PRIVATE METHODS\n    */\n\n    /// @param maker address of the maker in the trade\n    /// @param taker address of the taker in the trade\n    /// @param qty quantity transacted between parties\n    /// @param price agreed price of the matched trade.\n    function updatePositions(address maker, address taker, int qty, uint price) private {\n        updatePosition(maker, qty, price);\n        // continue process for taker, but qty is opposite sign for taker\n        updatePosition(taker, qty * -1, price);\n\n    }\n\n    /// @param userAddress storage struct containing position information for this user\n    /// @param qty signed quantity this users position is changing by, + for buy and - for sell\n    /// @param price transacted price of the new position / trade\n    function updatePosition(address userAddress, int qty, uint price) private {\n        UserNetPosition storage userNetPosition = addressToUserPosition[userAddress];\n        if(userNetPosition.netPosition == 0 ||  userNetPosition.netPosition.isSameSign(qty)) {\n            // new position or adding to open pos\n            addUserNetPosition(userNetPosition, userAddress, qty, price);\n        }\n        else {  // opposite side from open position, reduce, flattened, or flipped.\n            if(userNetPosition.netPosition >= qty * -1) { // pos is reduced or flattened\n                reduceUserNetPosition(userAddress, userNetPosition, qty, price);\n            } else {    // pos is flipped, reduce and then create new open pos!\n                reduceUserNetPosition(userAddress, userNetPosition, userNetPosition.netPosition * -1, price); // flatten completely\n                int newNetPos = userNetPosition.netPosition + qty;            // the portion remaining after flattening\n                addUserNetPosition(userNetPosition, userAddress, newNetPos, price);\n            }\n        }\n        userNetPosition.netPosition = userNetPosition.netPosition.add(qty);   // keep track of total net pos across all prices for user.\n    }\n\n    /// @dev calculates the needed collateral for a new position and commits it to the pool removing it from the\n    /// users account and creates the needed Position struct to record the new position.\n    /// @param userNetPosition current positions held by user\n    /// @param userAddress address of user entering into the position\n    /// @param qty signed quantity of the trade\n    /// @param price agreed price of trade\n    function addUserNetPosition(\n        UserNetPosition storage userNetPosition,\n        address userAddress,\n        int qty,\n        uint price\n    ) private {\n        uint neededCollateral = MathLib.calculateNeededCollateral(\n            PRICE_FLOOR,\n            PRICE_CAP,\n            QTY_DECIMAL_PLACES,\n            qty,\n            price);\n        commitCollateralToPool(userAddress, neededCollateral);\n        userNetPosition.positions.push(Position(price, qty));   // append array with new position\n    }\n\n    /// @param userAddress address of user who is reducing their pos\n    /// @param userNetPos storage struct for this users position\n    /// @param qty signed quantity of the qty to reduce this users position by\n    /// @param price transacted price\n    function reduceUserNetPosition(\n        address userAddress,\n        UserNetPosition storage userNetPos,\n        int qty,\n        uint price\n    ) private {\n        uint collateralToReturnToUserAccount = 0;\n        int qtyToReduce = qty;                      // note: this sign is opposite of our users position\n        assert(userNetPos.positions.length != 0);   // sanity check\n        while(qtyToReduce != 0) {   //TODO: ensure we dont run out of gas here!\n            Position storage position = userNetPos.positions[userNetPos.positions.length - 1];  // get the last pos (LIFO)\n            if(position.qty.abs() <= qtyToReduce.abs()) {   // this position is completely consumed!\n                collateralToReturnToUserAccount = collateralToReturnToUserAccount.add(\n                    MathLib.calculateNeededCollateral(\n                        PRICE_FLOOR,\n                        PRICE_CAP,\n                        QTY_DECIMAL_PLACES,\n                        position.qty,\n                        price\n                    )\n                );\n                qtyToReduce = qtyToReduce.add(position.qty);\n                userNetPos.positions.length--;  // remove this position from our array.\n            }\n            else {  // this position stays, just reduce the qty.\n                position.qty = position.qty.add(qtyToReduce);\n                // pos is opp sign of qty we are reducing here!\n                collateralToReturnToUserAccount = collateralToReturnToUserAccount.add(\n                    MathLib.calculateNeededCollateral(\n                        PRICE_FLOOR,\n                        PRICE_CAP,\n                        QTY_DECIMAL_PLACES,\n                        qtyToReduce * -1,\n                        price\n                    )\n                );\n                //qtyToReduce = 0; // completely reduced now!\n                break;\n            }\n        }\n\n        if(collateralToReturnToUserAccount != 0) {  // allocate funds back to user acct.\n            withdrawCollateralFromPool(userAddress, collateralToReturnToUserAccount);\n        }\n    }\n\n    /// @notice moves collateral from a user's account to the pool upon trade execution.\n    /// @param fromAddress address of user entering trade\n    /// @param collateralAmount amount of collateral to transfer from user account to collateral pool\n    function commitCollateralToPool(address fromAddress, uint collateralAmount) private {\n        require(userAddressToAccountBalance[fromAddress] >= collateralAmount);   // ensure sufficient balance\n        uint newBalance = userAddressToAccountBalance[fromAddress].subtract(collateralAmount);\n        userAddressToAccountBalance[fromAddress] = newBalance;\n        collateralPoolBalance = collateralPoolBalance.add(collateralAmount);\n        UpdatedUserBalance(fromAddress, newBalance);\n        UpdatedPoolBalance(collateralPoolBalance);\n    }\n\n    /// @notice withdraws collateral from pool to a user account upon exit or trade settlement\n    /// @param toAddress address of user\n    /// @param collateralAmount amount to transfer from pool to user.\n    function withdrawCollateralFromPool(address toAddress, uint collateralAmount) private {\n        require(collateralPoolBalance >= collateralAmount); // ensure sufficient balance\n        uint newBalance = userAddressToAccountBalance[toAddress].add(collateralAmount);\n        userAddressToAccountBalance[toAddress] = newBalance;\n        collateralPoolBalance = collateralPoolBalance.subtract(collateralAmount);\n        UpdatedUserBalance(toAddress, newBalance);\n        UpdatedPoolBalance(collateralPoolBalance);\n    }\n\n    /// @dev call to oraclize to set up our query and record its hash.\n    function queryOracle() private {\n        if (oraclize_getPrice(ORACLE_DATA_SOURCE) > this.balance) {\n            OracleQueryFailed();\n            lastPriceQueryResult = \"FAILED\"; //TODO: failsafe\n        } else {\n            OracleQuerySuccess();\n            bytes32 queryId = oraclize_query(ORACLE_QUERY_REPEAT, ORACLE_DATA_SOURCE, ORACLE_QUERY, QUERY_CALLBACK_GAS);\n            validQueryIDs[queryId] = true;\n        }\n    }\n\n    /// @dev checks our last query price to see if our contract should enter settlement due to it being past our\n    //  expiration date or outside of our tradeable ranges.\n    function checkSettlement() private {\n        if(isSettled)   // already settled.\n            return;\n\n        if(now > EXPIRATION) {  // note: miners can cheat this by small increments of time (minutes, not hours)\n            isSettled = true;   // time based expiration has occurred.\n        } else if(lastPrice >= PRICE_CAP || lastPrice <= PRICE_FLOOR) {\n            isSettled = true;   // we have breached/touched our pricing bands\n        }\n\n        if(isSettled) {\n            settleContract(lastPrice);\n        }\n    }\n\n    /// @dev records our final settlement price and fires needed events.\n    /// @param finalSettlementPrice final query price at time of settlement\n    function settleContract(uint finalSettlementPrice) private {\n        settlementPrice = finalSettlementPrice;\n        ContractSettled(finalSettlementPrice);\n        // TODO: return any remaining ether balance to creator of this contract (no longer needs gas for queries)\n    }\n\n    /// @dev over estimates needed gas to power queries until expiration and determines if provided contract\n    /// contains enough.\n    /// @param secondsToExpiration seconds from now that expiration is scheduled.\n    /// @return true if sufficient gas is present to create queries at the designated\n    /// frequency from now until expiration\n    function checkSufficientStartingBalance(uint secondsToExpiration) private view returns (bool isSufficient) {\n        //uint costPerQuery = oraclize_getPrice(ORACLE_DATA_SOURCE); this doesn't work prior to first query(its free)\n        uint expectedNoOfQueries = secondsToExpiration / ORACLE_QUERY_REPEAT;\n        uint approxGasRequired = COST_PER_QUERY * expectedNoOfQueries;\n        return this.balance > (approxGasRequired * 2);\n    }\n}\n\n",
  "sourcePath": "/Volumes/Work/BlockChain/Project/MarketProtocol/contracts/MarketContract.sol",
  "compiler": {
    "name": "solc",
    "version": "0.4.18+commit.9cf6e910.Emscripten.clang"
  },
  "schemaVersion": "1.0.1",
  "updatedAt": "2017-11-20T08:30:51.672Z"
}