{
  "contractName": "OrderLib",
  "abi": [
    {
      "constant": true,
      "inputs": [
        {
          "name": "contractAddress",
          "type": "address"
        },
        {
          "name": "orderAddresses",
          "type": "address[3]"
        },
        {
          "name": "unsignedOrderValues",
          "type": "uint256[5]"
        },
        {
          "name": "orderQty",
          "type": "int256"
        }
      ],
      "name": "createOrderHash",
      "outputs": [
        {
          "name": "",
          "type": "bytes32"
        }
      ],
      "payable": false,
      "stateMutability": "pure",
      "type": "function"
    },
    {
      "constant": true,
      "inputs": [
        {
          "name": "signerAddress",
          "type": "address"
        },
        {
          "name": "hash",
          "type": "bytes32"
        },
        {
          "name": "v",
          "type": "uint8"
        },
        {
          "name": "r",
          "type": "bytes32"
        },
        {
          "name": "s",
          "type": "bytes32"
        }
      ],
      "name": "isValidSignature",
      "outputs": [
        {
          "name": "",
          "type": "bool"
        }
      ],
      "payable": false,
      "stateMutability": "pure",
      "type": "function"
    }
  ],
  "bytecode": "0x6060604052341561000f57600080fd5b6104968061001e6000396000f30060606040526004361061004c576000357c0100000000000000000000000000000000000000000000000000000000900463ffffffff16806336a716da146100515780638163681e146100fc575b600080fd5b6100de600480803573ffffffffffffffffffffffffffffffffffffffff169060200190919080606001906003806020026040519081016040528092919082600360200280828437820191505050505091908060a001906005806020026040519081016040528092919082600560200280828437820191505050505091908035906020019091905050610175565b60405180826000191660001916815260200191505060405180910390f35b61015b600480803573ffffffffffffffffffffffffffffffffffffffff169060200190919080356000191690602001909190803560ff169060200190919080356000191690602001909190803560001916906020019091905050610363565b604051808215151515815260200191505060405180910390f35b60008484600060038110151561018757fe5b602002015185600160038110151561019b57fe5b60200201518660026003811015156101af57fe5b60200201518660006005811015156101c357fe5b60200201518760016005811015156101d757fe5b60200201518860026005811015156101eb57fe5b60200201518960036005811015156101ff57fe5b60200201518a600460058110151561021357fe5b60200201518a604051808b73ffffffffffffffffffffffffffffffffffffffff1673ffffffffffffffffffffffffffffffffffffffff166c010000000000000000000000000281526014018a73ffffffffffffffffffffffffffffffffffffffff1673ffffffffffffffffffffffffffffffffffffffff166c010000000000000000000000000281526014018973ffffffffffffffffffffffffffffffffffffffff1673ffffffffffffffffffffffffffffffffffffffff166c010000000000000000000000000281526014018873ffffffffffffffffffffffffffffffffffffffff1673ffffffffffffffffffffffffffffffffffffffff166c010000000000000000000000000281526014018781526020018681526020018581526020018481526020018381526020018281526020019a505050505050505050505060405180910390209050949350505050565b600060018560405180807f19457468657265756d205369676e6564204d6573736167653a0a333200000000815250601c0182600019166000191681526020019150506040518091039020858585604051600081526020016040526000604051602001526040518085600019166000191681526020018460ff1660ff16815260200183600019166000191681526020018260001916600019168152602001945050505050602060405160208103908084039060008661646e5a03f1151561042857600080fd5b50506020604051035173ffffffffffffffffffffffffffffffffffffffff168673ffffffffffffffffffffffffffffffffffffffff16149050959450505050505600a165627a7a723058205f5cf348334bd169581bea1ca3130fb0a7465c3c6e04f232016c315bb1840bba0029",
  "source": "/*\n    Copyright 2017 Phillip A. Elsasser\n\n    Licensed under the Apache License, Version 2.0 (the \"License\");\n    you may not use this file except in compliance with the License.\n    You may obtain a copy of the License at\n\n    http://www.apache.org/licenses/LICENSE-2.0\n\n    Unless required by applicable law or agreed to in writing, software\n    distributed under the License is distributed on an \"AS IS\" BASIS,\n    WITHOUT WARRANTIES OR CONDITIONS OF ANY KIND, either express or implied.\n    See the License for the specific language governing permissions and\n    limitations under the License.\n*/\npragma solidity 0.4.18;\n\n/// @title OrderLib\n/// @author Phil Elsasser <phil@marketprotcol.io>\nlibrary OrderLib {\n\n    struct Order {\n        address maker;\n        address taker;\n        address feeRecipient;\n        uint makerFee;\n        uint takerFee;\n        uint price;\n        uint expirationTimeStamp;\n        int qty;\n        bytes32 orderHash;\n    }\n\n    /// @dev factory for orders to be created with needed hash.\n    /// @param contractAddress address of the calling contract, orders are unique to each contract\n    /// @param orderAddresses array of 3 address. maker, taker, and feeRecipient\n    /// @param unsignedOrderValues array of 5 unsigned integers. makerFee, takerFee, price, expirationTimeStamp and salt\n    /// @param orderQty signed qty of the original order.\n    function createOrder(address contractAddress,\n        address[3] orderAddresses,\n        uint[5] unsignedOrderValues,\n        int orderQty\n    ) internal pure returns (Order order) {\n        order.maker = orderAddresses[0];\n        order.taker = orderAddresses[1];\n        order.feeRecipient = orderAddresses[2];\n        order.makerFee = unsignedOrderValues[0];\n        order.takerFee = unsignedOrderValues[1];\n        order.price = unsignedOrderValues[2];\n        order.expirationTimeStamp = unsignedOrderValues[3];\n        order.qty = orderQty;\n        order.orderHash = createOrderHash(contractAddress, orderAddresses, unsignedOrderValues, orderQty);\n        return order;\n    }\n\n    /// @notice creates the hash for the given order parameters.\n    /// @param contractAddress address of the calling contract, orders are unique to each contract\n    /// @param orderAddresses array of 3 address. maker, taker, and feeRecipient\n    /// @param unsignedOrderValues array of 5 unsigned integers. makerFee, takerFee, price, expirationTimeStamp and salt\n    /// @param orderQty signed qty of the original order.\n    function createOrderHash(\n        address contractAddress,\n        address[3] orderAddresses,\n        uint[5] unsignedOrderValues,\n        int orderQty\n    ) public pure returns (bytes32) {\n        return keccak256(\n            contractAddress,\n            orderAddresses[0],\n            orderAddresses[1],\n            orderAddresses[2],\n            unsignedOrderValues[0],\n            unsignedOrderValues[1],\n            unsignedOrderValues[2],\n            unsignedOrderValues[3],\n            unsignedOrderValues[4],\n            orderQty\n        );\n    }\n\n    /// @notice confirms hash originated from signer\n    /// @param signerAddress - address of order originator\n    /// @param hash - original order hash\n    /// @param v order signature\n    /// @param r order signature\n    /// @param s order signature\n    function isValidSignature(\n        address signerAddress,\n        bytes32 hash,\n        uint8 v,\n        bytes32 r,\n        bytes32 s\n    ) public pure returns (bool) {\n        return signerAddress == ecrecover(keccak256(\"\\x19Ethereum Signed Message:\\n32\", hash), v, r, s);\n    }\n}\n\n",
  "sourcePath": "/Volumes/Work/BlockChain/Project/MarketProtocol/contracts/libraries/OrderLib.sol",
  "compiler": {
    "name": "solc",
    "version": "0.4.18+commit.9cf6e910.Emscripten.clang"
  },
  "schemaVersion": "1.0.1",
  "updatedAt": "2017-11-20T08:30:51.643Z"
}